{
  "_format": "hh-sol-artifact-1",
  "contractName": "RevowRegistry",
  "sourceName": "contracts/RevowRegistry.sol",
  "abi": [
    {
      "anonymous": false,
      "inputs": [
        {
          "indexed": true,
          "internalType": "address",
          "name": "pledgor",
          "type": "address"
        },
        {
          "indexed": false,
          "internalType": "bytes32",
          "name": "projectName",
          "type": "bytes32"
        },
        {
          "indexed": false,
          "internalType": "bytes32",
          "name": "location",
          "type": "bytes32"
        },
        {
          "indexed": false,
          "internalType": "enum RevowRegistry.CommitmentType",
          "name": "commitmentType",
          "type": "uint8"
        },
        {
          "indexed": false,
          "internalType": "uint8",
          "name": "percentage",
          "type": "uint8"
        },
        {
          "indexed": false,
          "internalType": "uint256",
          "name": "startDate",
          "type": "uint256"
        },
        {
          "indexed": false,
          "internalType": "string",
          "name": "ipfsHash",
          "type": "string"
        },
        {
          "indexed": false,
          "internalType": "uint256",
          "name": "timestamp",
          "type": "uint256"
        }
      ],
      "name": "PledgeRegistered",
      "type": "event"
    },
    {
      "inputs": [],
      "name": "getAllPledges",
      "outputs": [
        {
          "components": [
            {
              "internalType": "address",
              "name": "pledgor",
              "type": "address"
            },
            {
              "internalType": "bytes32",
              "name": "projectName",
              "type": "bytes32"
            },
            {
              "internalType": "bytes32",
              "name": "location",
              "type": "bytes32"
            },
            {
              "internalType": "enum RevowRegistry.CommitmentType",
              "name": "commitmentType",
              "type": "uint8"
            },
            {
              "internalType": "uint8",
              "name": "percentage",
              "type": "uint8"
            },
            {
              "internalType": "uint256",
              "name": "startDate",
              "type": "uint256"
            },
            {
              "internalType": "string",
              "name": "ipfsHash",
              "type": "string"
            },
            {
              "internalType": "uint256",
              "name": "timestamp",
              "type": "uint256"
            }
          ],
          "internalType": "struct RevowRegistry.Pledge[]",
          "name": "",
          "type": "tuple[]"
        }
      ],
      "stateMutability": "view",
      "type": "function"
    },
    {
      "inputs": [
        {
          "internalType": "address",
          "name": "pledgor",
          "type": "address"
        }
      ],
      "name": "getPledgesByAddress",
      "outputs": [
        {
          "components": [
            {
              "internalType": "address",
              "name": "pledgor",
              "type": "address"
            },
            {
              "internalType": "bytes32",
              "name": "projectName",
              "type": "bytes32"
            },
            {
              "internalType": "bytes32",
              "name": "location",
              "type": "bytes32"
            },
            {
              "internalType": "enum RevowRegistry.CommitmentType",
              "name": "commitmentType",
              "type": "uint8"
            },
            {
              "internalType": "uint8",
              "name": "percentage",
              "type": "uint8"
            },
            {
              "internalType": "uint256",
              "name": "startDate",
              "type": "uint256"
            },
            {
              "internalType": "string",
              "name": "ipfsHash",
              "type": "string"
            },
            {
              "internalType": "uint256",
              "name": "timestamp",
              "type": "uint256"
            }
          ],
          "internalType": "struct RevowRegistry.Pledge[]",
          "name": "",
          "type": "tuple[]"
        }
      ],
      "stateMutability": "view",
      "type": "function"
    },
    {
      "inputs": [
        {
          "internalType": "bytes32",
          "name": "projectName",
          "type": "bytes32"
        },
        {
          "internalType": "bytes32",
          "name": "location",
          "type": "bytes32"
        },
        {
          "internalType": "enum RevowRegistry.CommitmentType",
          "name": "commitmentType",
          "type": "uint8"
        },
        {
          "internalType": "uint8",
          "name": "percentage",
          "type": "uint8"
        },
        {
          "internalType": "uint256",
          "name": "startDate",
          "type": "uint256"
        },
        {
          "internalType": "string",
          "name": "ipfsHash",
          "type": "string"
        }
      ],
      "name": "registerPledge",
      "outputs": [],
      "stateMutability": "nonpayable",
      "type": "function"
    }
  ],
  "bytecode": "0x608060405234801561001057600080fd5b50611169806100206000396000f3fe608060405234801561001057600080fd5b50600436106100415760003560e01c80631d8015701461004657806352612f7f146100765780639482e6b214610092575b600080fd5b610060600480360381019061005b9190610843565b6100b0565b60405161006d9190610b46565b60405180910390f35b610090600480360381019061008b9190610c76565b6102b6565b005b61009a610613565b6040516100a79190610b46565b60405180910390f35b60606000808373ffffffffffffffffffffffffffffffffffffffff1673ffffffffffffffffffffffffffffffffffffffff168152602001908152602001600020805480602002602001604051908101604052809291908181526020016000905b828210156102ab5783829060005260206000209060070201604051806101000160405290816000820160009054906101000a900473ffffffffffffffffffffffffffffffffffffffff1673ffffffffffffffffffffffffffffffffffffffff1673ffffffffffffffffffffffffffffffffffffffff16815260200160018201548152602001600282015481526020016003820160009054906101000a900460ff1660018111156101c3576101c26108c4565b5b60018111156101d5576101d46108c4565b5b81526020016003820160019054906101000a900460ff1660ff1660ff1681526020016004820154815260200160058201805461021090610d54565b80601f016020809104026020016040519081016040528092919081815260200182805461023c90610d54565b80156102895780601f1061025e57610100808354040283529160200191610289565b820191906000526020600020905b81548152906001019060200180831161026c57829003601f168201915b5050505050815260200160068201548152505081526020019060010190610110565b505050509050919050565b600042905060006040518061010001604052803373ffffffffffffffffffffffffffffffffffffffff1681526020018a8152602001898152602001886001811115610304576103036108c4565b5b81526020018760ff16815260200186815260200185858080601f016020809104026020016040519081016040528093929190818152602001838380828437600081840152601f19601f8201169050808301925050505050505081526020018381525090506000803373ffffffffffffffffffffffffffffffffffffffff1673ffffffffffffffffffffffffffffffffffffffff16815260200190815260200160002081908060018154018082558091505060019003906000526020600020906007020160009091909190915060008201518160000160006101000a81548173ffffffffffffffffffffffffffffffffffffffff021916908373ffffffffffffffffffffffffffffffffffffffff160217905550602082015181600101556040820151816002015560608201518160030160006101000a81548160ff02191690836001811115610456576104556108c4565b5b021790555060808201518160030160016101000a81548160ff021916908360ff16021790555060a0820151816004015560c082015181600501908161049b9190610f60565b5060e082015181600601555050600181908060018154018082558091505060019003906000526020600020906007020160009091909190915060008201518160000160006101000a81548173ffffffffffffffffffffffffffffffffffffffff021916908373ffffffffffffffffffffffffffffffffffffffff160217905550602082015181600101556040820151816002015560608201518160030160006101000a81548160ff0219169083600181111561055a576105596108c4565b5b021790555060808201518160030160016101000a81548160ff021916908360ff16021790555060a0820151816004015560c082015181600501908161059f9190610f60565b5060e0820151816006015550503373ffffffffffffffffffffffffffffffffffffffff167f914897f7724919149f83a4a4f416d2f7a7bf228fcbc1939bd35533fdbdf98aaf8a8a8a8a8a8a8a8a6040516106009897969594939291906110bb565b60405180910390a2505050505050505050565b60606001805480602002602001604051908101604052809291908181526020016000905b828210156107d25783829060005260206000209060070201604051806101000160405290816000820160009054906101000a900473ffffffffffffffffffffffffffffffffffffffff1673ffffffffffffffffffffffffffffffffffffffff1673ffffffffffffffffffffffffffffffffffffffff16815260200160018201548152602001600282015481526020016003820160009054906101000a900460ff1660018111156106ea576106e96108c4565b5b60018111156106fc576106fb6108c4565b5b81526020016003820160019054906101000a900460ff1660ff1660ff1681526020016004820154815260200160058201805461073790610d54565b80601f016020809104026020016040519081016040528092919081815260200182805461076390610d54565b80156107b05780601f10610785576101008083540402835291602001916107b0565b820191906000526020600020905b81548152906001019060200180831161079357829003601f168201915b5050505050815260200160068201548152505081526020019060010190610637565b50505050905090565b600080fd5b600080fd5b600073ffffffffffffffffffffffffffffffffffffffff82169050919050565b6000610810826107e5565b9050919050565b61082081610805565b811461082b57600080fd5b50565b60008135905061083d81610817565b92915050565b600060208284031215610859576108586107db565b5b60006108678482850161082e565b91505092915050565b600081519050919050565b600082825260208201905092915050565b6000819050602082019050919050565b6108a581610805565b82525050565b6000819050919050565b6108be816108ab565b82525050565b7f4e487b7100000000000000000000000000000000000000000000000000000000600052602160045260246000fd5b60028110610904576109036108c4565b5b50565b6000819050610915826108f3565b919050565b600061092582610907565b9050919050565b6109358161091a565b82525050565b600060ff82169050919050565b6109518161093b565b82525050565b6000819050919050565b61096a81610957565b82525050565b600081519050919050565b600082825260208201905092915050565b60005b838110156109aa57808201518184015260208101905061098f565b60008484015250505050565b6000601f19601f8301169050919050565b60006109d282610970565b6109dc818561097b565b93506109ec81856020860161098c565b6109f5816109b6565b840191505092915050565b600061010083016000830151610a19600086018261089c565b506020830151610a2c60208601826108b5565b506040830151610a3f60408601826108b5565b506060830151610a52606086018261092c565b506080830151610a656080860182610948565b5060a0830151610a7860a0860182610961565b5060c083015184820360c0860152610a9082826109c7565b91505060e0830151610aa560e0860182610961565b508091505092915050565b6000610abc8383610a00565b905092915050565b6000602082019050919050565b6000610adc82610870565b610ae6818561087b565b935083602082028501610af88561088c565b8060005b85811015610b345784840389528151610b158582610ab0565b9450610b2083610ac4565b925060208a01995050600181019050610afc565b50829750879550505050505092915050565b60006020820190508181036000830152610b608184610ad1565b905092915050565b610b71816108ab565b8114610b7c57600080fd5b50565b600081359050610b8e81610b68565b92915050565b60028110610ba157600080fd5b50565b600081359050610bb381610b94565b92915050565b610bc28161093b565b8114610bcd57600080fd5b50565b600081359050610bdf81610bb9565b92915050565b610bee81610957565b8114610bf957600080fd5b50565b600081359050610c0b81610be5565b92915050565b600080fd5b600080fd5b600080fd5b60008083601f840112610c3657610c35610c11565b5b8235905067ffffffffffffffff811115610c5357610c52610c16565b5b602083019150836001820283011115610c6f57610c6e610c1b565b5b9250929050565b600080600080600080600060c0888a031215610c9557610c946107db565b5b6000610ca38a828b01610b7f565b9750506020610cb48a828b01610b7f565b9650506040610cc58a828b01610ba4565b9550506060610cd68a828b01610bd0565b9450506080610ce78a828b01610bfc565b93505060a088013567ffffffffffffffff811115610d0857610d076107e0565b5b610d148a828b01610c20565b925092505092959891949750929550565b7f4e487b7100000000000000000000000000000000000000000000000000000000600052602260045260246000fd5b60006002820490506001821680610d6c57607f821691505b602082108103610d7f57610d7e610d25565b5b50919050565b7f4e487b7100000000000000000000000000000000000000000000000000000000600052604160045260246000fd5b60008190508160005260206000209050919050565b60006020601f8301049050919050565b600082821b905092915050565b600060088302610e167fffffffffffffffffffffffffffffffffffffffffffffffffffffffffffffffff82610dd9565b610e208683610dd9565b95508019841693508086168417925050509392505050565b6000819050919050565b6000610e5d610e58610e5384610957565b610e38565b610957565b9050919050565b6000819050919050565b610e7783610e42565b610e8b610e8382610e64565b848454610de6565b825550505050565b600090565b610ea0610e93565b610eab818484610e6e565b505050565b5b81811015610ecf57610ec4600082610e98565b600181019050610eb1565b5050565b601f821115610f1457610ee581610db4565b610eee84610dc9565b81016020851015610efd578190505b610f11610f0985610dc9565b830182610eb0565b50505b505050565b600082821c905092915050565b6000610f3760001984600802610f19565b1980831691505092915050565b6000610f508383610f26565b9150826002028217905092915050565b610f6982610970565b67ffffffffffffffff811115610f8257610f81610d85565b5b610f8c8254610d54565b610f97828285610ed3565b600060209050601f831160018114610fca5760008415610fb8578287015190505b610fc28582610f44565b86555061102a565b601f198416610fd886610db4565b60005b8281101561100057848901518255600182019150602085019450602081019050610fdb565b8683101561101d5784890151611019601f891682610f26565b8355505b6001600288020188555050505b505050505050565b61103b816108ab565b82525050565b61104a8161091a565b82525050565b6110598161093b565b82525050565b61106881610957565b82525050565b600082825260208201905092915050565b82818337600083830152505050565b600061109a838561106e565b93506110a783858461107f565b6110b0836109b6565b840190509392505050565b600060e0820190506110d0600083018b611032565b6110dd602083018a611032565b6110ea6040830189611041565b6110f76060830188611050565b611104608083018761105f565b81810360a083015261111781858761108e565b905061112660c083018461105f565b999850505050505050505056fea26469706673582212201dd40cf6ea912326bbf7be81c1e0f344a8940d1a7add27f047934bff0630ef0a64736f6c63430008180033",
  "linkReferences": {},
  "deployedLinkReferences": {}
}